:10000000201100201103000005030000C1000000C2
:1000100000000000000000000000000000000000E0
:1000200000000000000000000000000009030000C4
:10003000000000000000000085030000BD03000078
:100040000F030000D90200000F0300000F0300009F
:100050000F0300000F0300000F0300000F03000058
:10006000010100000F0300000F0300000F03000058
:10007000F52800000F0300000F0300000F0300002D
:100080000F0300000F0300000F0300000F03000028
:10009000710100000F0300000F0300000F030000B8
:1000A0000F0300000F0300000F0300000F03000008
:1000B0000F0300002D0100000F0300000F030000DC
:1000C00010B5EFF30884002C01D1EFF30984216906
:1000D000074803F0D3F86169064803F0CFF8A16937
:1000E000054803F0CBF8E169044803F0C7F8FEE7E0
:1000F000763B0000833B0000903B00009D3B0000EE
:10010000084B9A69012A00D19A619A6801231A4220
:1001100007D08021034A09019360034A136A0B4305
:10012000136270470000014000000E40002170B5CE
:100130000C480D4C8A00135912189BB25B4315688A
:100140000131EB1813600829F4D1084A1368013B08
:100150001360002B01D102F07DF90122024B1A63DA
:1001600070BDC046540D002000000E404C0D002014
:10017000F0B5494B87B01A6904920499002900D15F
:1001800087E080221202914210D108215A6805921C
:10019000059A0A4202D05A688A435A601021059A89
:1001A0000A4276D05A688A435A6072E0049B5B0424
:1001B0005B0C0193013B1F2B6BD83848C36F374949
:1001C0001342FBD17F22364BDA67019ACA6780223D
:1001D00003931202CB6F1340FCD13248324C0268B9
:1001E000A4460292029C0700304A314E314D24054C
:1001F0001CD50124304F3C60F327039CE767036064
:100200002E4803602E4803602E4803601360624648
:10021000336013602C4A2B601360204B019ADA671D
:1002200080231B02CA6F1A42FCD132E01168274BAF
:100230001268490406D5234925480968120402407A
:100240000A4301E0D204520D1A600F2239680A40B5
:100250001A7332689A8062461268DA802A681A81B4
:10026000194A12685A811B4A1000FE30C1880F29B2
:100270000FD80131C18041884C1CA4B209014480CF
:10028000521862CB62C21B6813600F2C01D9002385
:10029000438007B0F0BDC04600001840040018407D
:1002A0000800184098001840A0001840940018401A
:1002B0009C001840A40018405C01002088001840F1
:1002C0008C00184090001840A8001840900E0020A4
:1002D0000000FF1F880D00200821084A10B5136890
:1002E0000B4209D02C20136883430B43136004484E
:1002F00002F0C4FF02F01CFC10BDC04600400040EC
:10030000B83E0000FEE7FEE7FEE7FEE7FEE7FEE799
:10031000002370B513481449144C1A188A4203D2AA
:10032000E55804331560F8E70021114B114A934258
:1003300001D202C3FBE75921162088240E4B5A68CC
:10034000012A03D0596058605C60F8E70B4A0C49F9
:1003500011600022084B5A6002F03EFC00F084F865
:10036000FEE7C0460000002034000020B83F000037
:1003700034000020A00E0020FC000050240000509B
:10038000A55A000072B6EFF30980002804D0103897
:10039000084909680860F0C000F052FB05480649AA
:1003A0000A6802601068F0C880F3098862B603200A
:1003B00040420047700B0020DC0A002008B502F024
:1003C00047FC054A13780133137002F045FC00F036
:1003D000B3FA02F017FD08BD780C00207FB5FA25AE
:1003E00000240426AD000020013402F0CBF9AC4219
:1003F00003DDA42001F0E8F9002401F07DFA434276
:10040000584140420440684602F0F4F900280CD0FC
:10041000084B1B68334205D0029B019A009906489D
:1004200000F064F9684601F053FB012002F086FCFD
:10043000D9E7C046000000202C3A000010B50400A7
:100440000A2802D10D2002F0D3FAE0B202F0D0FA6D
:10045000002010BD10B50024024B1C8002F068FB88
:10046000200010BD040F002007B500F085FA052319
:100470000193064B002200930549064B064802F003
:100480000FFC00F0CFFA00200EBDC046580200203D
:10049000ED04000054060020413A000010B502F0BF
:1004A000D7FB040002F040FB0D4BC821186803F095
:1004B00041F902F085FC200002F0CEFB01F048FF7C
:1004C0009620800102F01CFA0021064802F0BAFED4
:1004D00002F0EAFA0449012002F046F910BDC046D4
:1004E0002C0000203D04000010270000F0B585B06E
:1004F000FFF7D4FF01F010F901F0C2FD464C474D63
:100500002388AB4204D0012000F0F4FA258002E0F9
:10051000002000F0EFFA0022414B01920093414984
:10052000414B424802F0BCFB002803D06C214048FC
:1005300002F0B4FE042301933E4B002200933E4997
:100540003E4B3F4802F0ACFB002803D06F213848F7
:1005500002F0A4FE3B4B14251B68D87800F054FE33
:100560000100394800F0C2F802F0CCFA02F020FA9B
:1005700000F076F8013D142002F0E0FB002D0BD1D5
:1005800000F034FC314B002801D01D6001E0012255
:100590001A6000F033FD14252D4C2368002BE3D1A5
:1005A00000F06EFA0123294E0A20336002F0C6FBE8
:1005B0002468002C2DD13460254B1B680393002B3D
:1005C00027D102F09FFA01340A2002F0B7FB142C65
:1005D000F2DD01221F4F1D4B38681A600028EBD056
:1005E00001F0E0FB386801F0DDFB1B4902F0BCF8CC
:1005F000A92001F0E9F8039B3B6002F083FAC820D0
:1006000002F09CFB02F07EFAC82002F097FB02F099
:1006100079FA01233360A7E7040F0020AA550000F0
:1006200058060020DD03000054090020453A000070
:10063000493A000058090020190D0000D40A002092
:10064000563A0000040000205D3A0000504200507D
:1006500080420050840C00201027000030BF7047FB
:1006600037B500283DDB1F490B680D003F2B27D80D
:10067000C4B2082C04D00D2C22D0002C13D130E0B1
:10068000002B2ED05A1E6B460A60581D01210470A3
:1006900002F0C2F9202301A80121037002F0BCF985
:1006A0006B46D81C07E01F2C1BD95A1CCB181C7199
:1006B0006B460A60981D0470012102F0ADF910E04C
:1006C0000024EB181C716B46D81D0A23012103700E
:1006D00002F0A2F9280010C002F07EFF024800F0EC
:1006E00005F837BD340000206A3A00000FB473B536
:1006F0000E4C06AB04CB40212000019302F0C6FB58
:100700002826050002F0FEF92900200002F084F9F5
:1007100024182D1A05D00520013E02F00FFB002EF3
:10072000F0D1012076BC08BC04B018477800002046
:1007300070B50D0002282DDD886802F0B9FD194959
:100740000400686802F0AFFE002809D116490A00CB
:100750001F2C00DD1F240123A340126813430EE069
:100760001249686802F09FFE00280AD10E490B006A
:100770001F2C00DD1F240122A2401B6893430B6045
:100780000DE00B49686802F08EFE002807D1064B89
:100790001C6004E0044B07481968FFF7A7FF00201E
:1007A00070BDC046933A000000000020963A000059
:1007B0009A3A00009E3A0000F8B5632200212148D1
:1007C000FFF794FFC8212048FFF790FF1F4B2049F7
:1007D000186802F0AFFF642601001E48FFF786FF8D
:1007E0001D4B1E481968FFF781FF1D4B1D481968F6
:1007F000FFF77CFF1C48FFF779FF1C4CA588002DF4
:100800001AD02100A27A103119482768FFF76EFF2D
:1008100000208300FB58002B02D101308542F8DC18
:10082000281A2900704303F00FF8278902003B00C3
:1008300029001048FFF75AFF0F4B1C349C42DDD1B2
:10084000F8BDC046BD3A0000D43A00002C0000209C
:1008500040420F00E63A00006C0B0020FC3A00001A
:10086000680B00200E3B0000203B0000800B0020A6
:10087000463B0000513B00007C0C0020072904D8B7
:1008800001238B4002689A4302607047072904D80D
:1008900001238B40026813430360704710B50100C9
:1008A0000148FFF7F3FF10BDA00E002010B50100B6
:1008B0000148FFF7E3FF10BDA00E00200022033126
:1008C0008908044B89B2013989B2994201D004C028
:1008D000F9E77047FFFF00000F23044A034001D0EF
:1008E000D05C02E000091018007C7047AA3B0000B1
:1008F00010B503000078002802D0FFF7EDFF08E0F4
:100900005B780820002B04D01800FFF7E5FF0830C3
:10091000C0B210BD10B50548FFF7EAFF1C235843CD
:10092000034BC018034B186010BDC046A00E00203A
:100930007C0B0020DC0A002070B500240B4A0C4D13
:100940001368013313602B88002B08D0013B9BB246
:100950002B80002B03D121000648FFF797FF0134BD
:10096000E4B21C35082CEED170BDC0466C0B0020E3
:10097000860B0020A00E002073B500251D4B1E4CD9
:100980001D701E4B04211D701D4B20001D60261D77
:10099000FFF794FFFC211B48FFF790FF6021300018
:1009A000FFF78CFF184B2A001E6023001033E36012
:1009B00023001C33A36123002833636223003433F4
:1009C000236323004033E36323004C33A3642300F9
:1009D00058336365082301930C4B0D4900930D4870
:1009E0000D4B02F05DF9A84203D00C490C4802F00F
:1009F00055FC73BDE00A0020A00E0020780C0020FA
:100A00006C0B00207C0B0020740B0020E80A0020F7
:100A1000610A0000CA3B0000640B002032020000A3
:100A2000D13B000010B5FFF775FF034B1A68034B6D
:100A30001A6002F014F910BDDC0A0020700B0020CF
:100A4000044B1A68938901339381034A1368013375
:100A500013607047700B0020680B00207047FFFF89
:100A600010B5FFF7FBFDFFF7F9FF02F0F1F8034ABD
:100A700013680133136002F0EFF8F2E7E40A002094
:100A800037B500251348FFF731FE134C0234607E62
:100A9000013805280FD802F043FE070305090B03B0
:100AA0000E4806E00E4804E00E4802E00E4800E062
:100AB0000E48FFF71BFE217EA21E013523881288F7
:100AC0000B4800912900FFF711FE2034082DDED1DC
:100AD00037BDC0466A3C0000080F0020F03C000013
:100AE000D13C0000813C0000803C0000BB3C000089
:100AF000833C000070B5002401265C4B18685C4BF9
:100B00005D1D191DFF350022A9420BD00A1FCE75AD
:100B100014808C750C760C8002798A760279CA76FC
:100B20002031F0E71E0001255249DB360A70847936
:100B300035702C401D000326FB352E70082585706E
:100B4000C07801380D2800D98AE002F0E9FD07627B
:100B50007D811B1D734F43898974092F0C707FE0C1
:100B60000C70190004223B310A7019005B310A70C5
:100B700019007B310A7019009B310A701900BB31D2
:100B8000DA760A70DB336AE0190018003B310A702C
:100B900005215B30017018007B30027018009B301B
:100BA00002701800BB30DA76027011E019001800EC
:100BB0003B310A7005215B30017018007B300270F8
:100BC00018009B300270DA761A000620BB321070D3
:100BD000DB332DE0190004223B310A7019001800A4
:100BE0005B310A70DA767B3000210AE019000422BA
:100BF0003B310A70190018005B310A700221DA7665
:100C00007B30017018009B3001701800BB30017000
:100C1000B8E7190018003B310A7001215B30017000
:100C200018007B30027018009B30DA760270BB33FC
:100C3000197015E00C7019003B310A701900012081
:100C40005B31DA76087003E0190002227B3101E0A3
:100C500019007B310A7019009B310A70BB331A707E
:100C60000022054B1A809A709A8070BD0400002003
:100C7000080F0020800C002008100020F8B5002686
:100C80000A2002F05BF8002001F0A6FB01F0FCFB5B
:100C9000002803DA012002F051F8F7E71D4C002587
:100CA00027001B373B780021072B0ED801229A40E2
:100CB00013009622134203D12E3A134205D000E0CE
:100CC0000121280001F0EAFB01B233000135153B98
:100CD000F9522037082DE5D10236142ED0D1A51DAA
:100CE0000734FF34A54213D00A21280002F0AAFCE1
:100CF00000231800A91FCA185289023380180C2B30
:100D0000F9D1062102F0A0FD2E1F30802035E9E741
:100D1000F8BDC046080F0020142370B5304E336074
:100D20000024FFF7ABFF306800F0D6FA2D4D0235F6
:100D30006B7E2A88013B0020052B47D8180002F063
:100D4000EFFC1D322A100332274B1968231D5B006C
:100D5000CB18197AD87909020143100000F07AFB08
:100D600034E0214B1968231D5B00CB18197AD87920
:100D700009020143100000F027FB27E01A4B196815
:100D8000231D5B00CB18197AD879090201431000A2
:100D900000F090FB1AE0100000F034FCC343DB17B6
:100DA0003060184012E0104B1968087ACB790002C5
:100DB0001843231D5B00CB18197A5043DA790902D6
:100DC000114302F041FD042800DC0020AB1E013479
:100DD00018802035082CABD1012001F0AFFF9FE730
:100DE0007C0C0020080F0020040000200021F0B53A
:100DF0007D4B85B01D68A87B6B7B2E7B0002184362
:100E0000EB7A36021E43794B07001B787210029171
:100E10008B420AD0764B1988FC239B000B40754906
:100E20005B18591E8B41DBB202930023724C019375
:100E30000093AB780099994200DB91E0009B022B74
:100E400005DDE37E012B00D182E0042B08D0E07E9B
:100E5000013805286FD802F063FC204D6E06204D46
:100E6000029B002B77D12C23FF339F4215DCBE2041
:100E700040007843DC2102F0E7FCBE235B007343B3
:100E8000DC2107001800039302F0DEFCDC210600E1
:100E90004900039802F0D8FC020023889A4206DB3E
:100EA000A1888A4203DB0323A3762B790BE09F42C0
:100EB0000CDAA1888F4209DAA37F002B02D101331B
:100EC000A37601E0013BA3772B7926E09E420DDD5E
:100ED000A3889E420ADDE37F002B02D10233A37672
:100EE00001E0013BE3772B79A37724E02B79A3770B
:100EF0002B791DE0AB7A697A20881B020B4398425C
:100F00000DD9A18899420AD9A37F002B02D10133C0
:100F1000A37601E0013BA3776B79E3770BE05B08F5
:100F2000984208D2A188994205D26B79A3776B7950
:100F3000E3770023A376A37E591E8B410199CB183A
:100F400001932388A380009B20340133009370E732
:100F5000029B002BA1D02B79A3772B79E377F2E7C3
:100F600003233020244A224D917E844619400C01EF
:100F700029783F26814310003A30007821438001D0
:100F800031400143297011005A310C7811001C4086
:100F900027006C787A319C433C430C270978BC438A
:100FA000194089001000214364469A30A14314007F
:100FB0000078BA3418400001084311002478064034
:100FC000A40126436E70DA31FA3212780978A878D3
:100FD0001940984313409A0003000B43BB43019808
:100FE0001343AB7005B0F0BD04000020800C00205E
:100FF0000810002010FCFFFF080F0020F7B57C4B05
:101000001A68D2780193112A49D801239340794A6A
:10101000134204D1C6229200134240D01EE00320A6
:10102000754C02256378A2888343FC2B0BD12A429E
:1010300014D10C22A62100F085FB00280ED0A38835
:101040001D43A5800AE02A4208D00C22A72100F007
:1010500079FB002802D0A388AB43A380FC22664C16
:101060009200238801251340A08893420BD1284089
:1010700015D10C22A62100F065FB00280FD0A38813
:101080001D43A5800BE0284209D00C22A721002097
:1010900000F058FB002802D0A388AB43A3800025B2
:1010A0000427564C1A3462781026BA43023A531E6B
:1010B0009A410F239A1A019B1B680093DB780E2B31
:1010C00005D8012199404E48014200D0043E2078C5
:1010D000032800D985E002F023FB0232414E0221B1
:1010E000A3780B420AD0D2B2E8B2A03100F02AFBBA
:1010F000002803D00222A3789343A370A3783B4235
:1011000009D0E8B20D22A22100F01CFB002802D079
:10111000A378BB43A370A3781B0762D5A721052D35
:1011200003DC05390C2E00D10531F2B2E8B200F033
:1011300009FB002855D00822A378934350E00226EB
:10114000A37833424DD1D2B2E8B2A12100F0FAFA2D
:10115000002846D0A3781E43A67042E0A3783B4205
:101160003FD1E8B20D22A12100F0ECFA002838D0DE
:10117000A3783B4334E0022D0FDC112B1DD8012254
:101180009A4013001F4A134217D0FC221A4B9200B8
:101190001B881340934210D123E0052D0DDC112B49
:1011A0000BD801229A401300124A134205D00322A1
:1011B000114B5B789343FC2B13D0A3781B0710D4FF
:1011C000A621052D03DC05390C2E00D10531F2B224
:1011D000E8B200F0B7FA002803D00822A37813433E
:1011E000A37001352034082D00D05CE7F7BDC04660
:1011F000040000200220020008100020080F002038
:10120000E45000001A230200002310B50649DA005A
:10121000545C844202D18A18506803E001330F2BDA
:10122000F5D1024810BDC046E83B0000043E000076
:101230008C22F0B50024234BFF321F68224B85B06F
:101240001968224D5143224A019159689B685143C4
:10125000204A02915A430392687E0138052829D812
:1012600002F05EFA181F280A031F2988642921D971
:10127000261D7600019805E02988C8291AD9261D5F
:101280000298760002F0E0FABE1980B2F071000A0E
:1012900030720FE02988C8290CD9261D76000398E2
:1012A000F0E72A88642A05D9231D5B00FB18DA7150
:1012B000120A1A7201342035082CCDD100F05AFDE3
:1012C00005B0F0BD04000020B80000200A0F002087
:1012D000A4060000310500008023FA22F0B5304C4E
:1012E000304924689200A47985B0DB008B604A60A5
:1012F0000A600091A10750D500212B4E0D00370048
:101300009C46012408370191029203960026BB5F98
:10131000834225DD1D1A039A631EDB00E400D61804
:101320001419678870880A21C01B684302F08CFA80
:10133000009BC7199F60B088A7880A21C01B68431B
:1013400002F082FAE488C719F088009B001B5F60F6
:1013500068430A2102F078FA009B04191C601CE023
:10136000834207D101210D007B88FA889C46BB8807
:101370000191029301340837062CC7D1002D02D009
:101380006046084B9860019B002B02D0054B0298E9
:101390005860002901D0034B1A6005B0F0BDC0466B
:1013A00004000020B8000020003D0000054A10B5F0
:1013B00091688022D200914202D0800202F044FA69
:1013C00010BDC046B8000020104B484310B5596806
:1013D00002F03AFA01230E4A30329C001419618857
:1013E00088420DDB013B9B00D31824881A885B8858
:1013F000121B401A5043591A02F026FA001903E052
:1014000001330D2BE9D1002010BDC046B8000020EB
:10141000003D0000012370B50D4C21009A003031D1
:10142000555A85420EDC013B9B00CB188A18548824
:101430005A881B88121B401B5043591B02F004FAA8
:10144000001903E001330D2BE7D1002070BDC04629
:10145000003D0000144B484310B5196802F0F4F940
:101460008C22FF320A2390420ADD8C38EB3AFF3897
:10147000504358430D49053002F0E6F9F03008E0DA
:101480008C225238504358430949053002F0DCF9A8
:101490006430FA235B00984203DC072802DC00205A
:1014A00000E0180010BDC046B8000020B40F0000D6
:1014B0003A0C0000114B484370B5996802F0C4F92A
:1014C00001230F4A64329C0014196188884210DBA2
:1014D0001425013B9B00D3185B88401A6843591AB6
:1014E00002F0B2F90130C30F181823884010C01859
:1014F00003E001330D2BE6D1002070BDB8000020C1
:10150000003D0000012370B50D4C21009A006431AC
:10151000555A85420EDC013B9B00CB188A18548833
:101520005A881B88121B401B5043591B02F08CF930
:10153000001903E001330D2BE7D1002070BDC04638
:10154000003D0000F0B504000025264B85B01B6867
:10155000254E0093254B5A689B6801920293737E37
:10156000012B18D0042B34D1002C01D17D34FF3451
:101570002300603BFF3B9BB2622B2AD8962337881F
:101580005B009F4225D92000FFF744FF2B1D5B0025
:101590000393019B11E0002C00D1DC342300B53B08
:1015A0009BB24A2B15D83788B42F12D92000FFF7E9
:1015B000A9FF2B1D5B000393029B5843390002F0E7
:1015C00043F9009A039B944680B26344D871000AA1
:1015D000187201352036082DC1D100F0CBFB05B0C3
:1015E000F0BDC046040000200A0F0020B800002013
:1015F00010B5012805DD486801F05AFE00B2FFF77A
:10160000A1FF10BD012370B50E4D9A00A91849889D
:1016100088420DD90A22013B9C002B195B88C01A15
:101620005043C91A02F010F9635FC01800B207E016
:10163000884201D1505F03E001330C2BE5D100203B
:1016400070BDC046B43D0000F8B52F4B2F4C186854
:101650001F2683782371C378E370437802781B02D6
:10166000134363711B0AA371294B1A78E2715A78EC
:1016700022729B78637200231D00A37281782B0075
:1016800001358B421BDA23496A01521804331100D9
:101690005B00E318DF1CBC4620390F784978DF7007
:1016A00067467F783140B74339436746053A127839
:1016B000797051011A7932400A431A71DEE7FA2330
:1016C00004314900CDB22370EA1C0133210000200F
:1016D000A570637001F096FEC826A3780535E3185F
:1016E000D870000A187101F00DFA2900200001F0ED
:1016F00093F924182D1A05D00120013E01F01EFB9C
:10170000002EF0D10120F8BD040000208C0C002038
:1017100008100020080F002000230749074A0B602B
:1017200007491370537093701374137553750B60DE
:1017300093750133D3757047880C0020C4000020D6
:10174000840C0020F7B51D4C0600607D0F0001924F
:10175000002831D001F07CFA23780025072B28D807
:1017600001332370A3785A1CD2B2072A01D8A27081
:1017700000E0A5701B01E418114BFF041B68012554
:101780001A785B781B021343A022920513430422AC
:101790001F43731CDB021F43631DDA77094B76017D
:1017A0009A19D27EF35A22776A461279A761627734
:1017B000E38301F051FA2800FEBDC046C4000020BA
:1017C00004000020080F0020F8B51F4B0600587DCC
:1017D0001C00002836D001F03BFA23780025072BA7
:1017E0002DD801332370A3785A1CD2B2072A01D80E
:1017F000A27000E0A570250014491B010968183586
:10180000ED18E3184C780F7824023C43104FF6048F
:101810003C43264308249E610533DC77CB782B714B
:101820008B786B710B4B1988E9809B782B810A4B65
:101830001B686B720023AB728233EB72012501F0DF
:101840000BFA2800F8BDC046C400002004000020A8
:1018500000080028081000207C0C0020F7B5224B5F
:1018600006001A681F0092780020B2423BD31F4C3A
:10187000607D002837D001F0EBF923780190002536
:10188000072B2CD8A27801332370531CDBB2072B13
:1018900001D8A37000E0A5703B6815011A785B7849
:1018A00061191B021343124A1343721CD2021343E1
:1018B00004228B614B1DDA770E4B76019819C27E9C
:1018C000807E0A774877052A05D1F05A0A2101F06F
:1018D00031FF00B200E0F05E64190125E083019859
:1018E00001F0BAF92800FEBD04000020C400002069
:1018F0000000282D080F0020F0B56F4985B04B7D02
:10190000002B01D10020D5E00C7C002C13D10B78EA
:10191000002B13D0013B0B704B780A1D581C1B0188
:10192000C0B2CB1848701833E0CBE0C21B6813601C
:10193000072800D94C700B7C002B48D10B7D0093FD
:10194000002B44D000273D005C4B009C1B689B781B
:101950000193019BA34205D20023574A13759D4270
:1019600039D025E0631EDBB2554A5B01D218D67E22
:10197000534A985A052E02D10A2101F0DBFE4E4A45
:101980007B00D3181A89C004520B5203C00C1043B9
:101990001F221881000A76011040023530430134BD
:1019A000EDB25872E4B20137082DD2D1424B1C750A
:1019B000424B41491B680D741A785B781B02134334
:1019C000B52292051343009AD20213434B603A4B5F
:1019D0001B7C002B50D1384CA37D0093002B47D0AB
:1019E0002300002708330293344BA67D1A689278AF
:1019F0000393B24204D20023A3759F4238D02AE059
:101A0000013E2F4BF6B276019A19D27E9D5B019270
:101A1000052A04D128000A2101F08CFE85B2284B4A
:101A2000ED049E197088FFF7C1FC019BB27E5B0735
:101A30001B0C12071343ED0C1D43224B00041840EE
:101A4000029B054320C30293A37D04370133FFB2F9
:101A5000A375082FC8D1039B27741B681A785B787D
:101A60001B021343184A1343009AD20213436360C4
:101A7000237C002B00D145E70F4E301D00F0DCFE2B
:101A800043B20400114D002B03DD00232B6033749F
:101A90000FE02B681E2B02DD002000F073FEFA23FE
:101AA0002A689B009A4204DD002301202B6000F08D
:101AB00069FEE0B205B0F0BDC400002004000020C3
:101AC000080F00200000FF0F0000682D880C002088
:101AD00070B5914D04002B685B0709D54288C17829
:101AE0005205C9060379120E890F8C48FEF7FEFDD8
:101AF0001823E2781A4200D10CE160884005D840F2
:101B000050380B2870D801F00BFE386F6F066F420B
:101B10006F6F6F6F2053824A238812685B051178BC
:101B20005278580D12020A43904201D0002B5BD12B
:101B3000A420FFF749FE7B4B0621625E9A4253D1F7
:101B40000122794B5A75DA754EE02B685B0702D596
:101B50007648FEF7CBFD734BA2889A4200D0D9E0BD
:101B60002B685B0704D50623E15E7148FEF7BEFDD6
:101B70000623E25E6F4B1A60CCE06A4B0621625E80
:101B80009A4201D100F018FAFEF764FCC2E000228C
:101B9000654B5A75DA752279AA2A00D07EE0614A2F
:101BA0000620215E914200D0B4E001225A75B1E0D6
:101BB0005B4A238812685B0511785278580D12022F
:101BC0000A43904201D0002B0ED12379AA2B06D0D4
:101BD000AB2B09D10623E05EFFF7B4FC9AE00021AD
:101BE0000800FFF725FB95E02379AA2B56D14C4A34
:101BF000238812685B0511785278580D12020A4347
:101C0000904201D0002B49D160884005000E573822
:101C1000142843D801F084FD38292E424224151A95
:101C2000101F33420B424242424242423D000623D1
:101C3000E05E00F02FF96DE00623E05E00F016F99B
:101C400068E00623E05E00F0F7F863E00623E05E5C
:101C500000F0DCF85EE00623E05E00F0C9F859E031
:101C60000623E05E00F0B6F854E00623E05E00F0E4
:101C700081FA4FE00623E05E00F064FA4AE00623B2
:101C8000E05E00F029F945E00623E05E00F016F979
:101C900040E00623E05E00F04BF93BE0204A238859
:101CA00012685B05117852785B0D12020A43934269
:101CB00030D163885B051B0E522B08D002D8012B54
:101CC00009D027E0562B12D06A2B1AD022E02068C8
:101CD0004003000E08E0FF232068DB02184219D001
:101CE0004003000E0138C0B2FFF7B8FD12E0A42097
:101CF000FFF76AFD0C4B1A7D002A0BD101321A75D1
:101D000008E0A420FFF760FD074B9A7D002A01D16F
:101D100001329A7570BDC04600000020EC3D000005
:101D200004000020AA550000C4000020FA3D000075
:101D3000063E0000840C002010B50B4C332221001D
:101D40000A4800F0FBFA0A4B31221968002001F022
:101D500059FB2300323431331A7823781B021343A2
:101D6000181A4342584110BD140D00200080000095
:101D700004000020084B10B519683122002001F042
:101D800041FB064933220B0031331870000A5870AA
:101D9000034800F08DFA10BD04000020140D00204F
:101DA00000800000094B421E10B5094C9A4206D82B
:101DB000236880B21870000A5870FFF7DBFF2268B2
:101DC000507813780002184310BDC046CF070000BA
:101DD0000400002010B5054C002803DD23681871AD
:101DE000FFF7C8FF2368187910BDC0460400002023
:101DF00010B5054C002803DD23685871FFF7BAFFC2
:101E00002368587910BDC0460400002010B5094C65
:101E1000042809DD236880B2C2B2000ADA711872A0
:101E20005A729872FFF7A6FF2268107AD3790002DF
:101E3000184310BD0400002010B50B4C00280CDD29
:101E400023681A7AD97912020A43904205DC80B2DB
:101E50005872000A9872FFF78DFF2268907A537AC1
:101E60000002184310BDC0460400002010B5084C05
:101E7000052806DD236880B25873000A9873FFF7BF
:101E800079FF2268907B537B0002184310BDC04647
:101E90000400002010B5084C052806DD236880B238
:101EA000D872000A1873FFF765FF2268107BD37A97
:101EB0000002184310BDC04604000020431E10B5A8
:101EC000044C072B03D823689870FFF753FF23684F
:101ED000987810BD0400002010B5094C002809DBDB
:101EE0000121431E9841226893798B4318439071D6
:101EF000FFF740FF23689879C007C00FC0B210BD3C
:101F00000400002010B5094C00280ADB431E98414C
:101F100002212268400093798B4318439071FFF7A8
:101F200029FF236898798007C00F10BD04000020A6
:101F3000F8B5431E1E4C102B36D8112805D00123AE
:101F4000C2228340520213422ED1236864211D0015
:101F50001E000022D9715972A939D9720B360D357C
:101F60003731D8701A729A72727059736A700E286B
:101F700016D80F310F00874038000E4F384208D175
:101F80008C22920110420BD04322DA727170A13A76
:101F900004E034204042D872727006225A7369708D
:101FA000FFF7E8FEFEF756FA2368D878F8BDC0467A
:101FB00004000020404000000122074B10B51B68C0
:101FC0001A7000225A7004321A7103329A70D8784B
:101FD000FFF7AEFF10BDC046040000200721274BCD
:101FE00070B51B68452599700D3119711E315971F5
:101FF00002210022012064246D42DD7237355D73B9
:1020000099710235491818705A70D870DC711A72BB
:102010005C729A721A739A73DA7319745A74997497
:10202000DA7419755A759975DA7519765A7699763A
:10203000DA76197740265D771D00DE771F353A3E48
:1020400098776E701A36AE701D3EEE704B3E2E7154
:102050002C73AC7368716A73EA731C000B252F3400
:102060006D42257062705B350A3C25702733513D07
:102070002571627060711A70597070BD0400002083
:1020800010B500F0CBF80020FFF756FE002803D172
:10209000FFF7A4FFFFF76EFE044B1B6899780A1C3C
:1020A000082900D908229A7010BDC04604000020FB
:1020B000F7B588680D0001F0FBF8002601900C24AC
:1020C00074431B4F68683C19210001F0ECF90028AB
:1020D00008D10198A3689847210002001548FEF72F
:1020E00005FB24E001360B2EE9D11349686801F0A5
:1020F000DAF9002811D13D003C0008358C34A542A6
:1021000015D001202B684042984729000200083969
:102110000A48FEF7EBFA0C35F1E70949686801F067
:10212000C2F9002803D1FFF759FFFFF723FEF7BDDF
:10213000143E0000A23E0000A93E0000AD3E00009B
:10214000B43E00000300293B10B5094C772B07D89B
:10215000236880B225331870000A5870FFF70AFE12
:1021600023689A1D0733D87FD27F0002104310BD29
:102170000400002002000B4BC93A10B50A4C9A42E9
:1021800007D8236880B221331870000A5870FFF70F
:10219000F1FD23689A1C0333D87FD27F00021043DD
:1021A00010BDC04677050000040000202122064B28
:1021B000DA60203A586099601A61BFF36F8F1A692C
:1021C000002AFCD17047C04600C000502222074BB5
:1021D000DA60213A58601A61BFF36F8F1A69002ADA
:1021E000FCD1024B18684006C017704700C0005071
:1021F00010B5592116208824064B5A68012A03D0AD
:10220000596058605C60F8E70921034A13680B4382
:10221000136010BDFC00005000C00050F7B500F086
:1022200017FD1F4C0190FFF7E3FF63691D4FBB4291
:102230002AD010222368134323600023E360C023C5
:102240009B03636001232361BFF36F8F2369144DE8
:10225000002BFBD1C020AE688003FFF7B7FF05233A
:102260003100C02099438003FFF7A0FF39000E48DA
:10227000FFF79CFFA0220121D20593680B439360D6
:1022800010222B6893432B60092223680198934303
:1022900000222360054B5A6000F0DEFCF7BDC0460B
:1022A00000C000500080000004003000FC0000501E
:1022B000F0B585B00E001500070000F0C9FC0390D2
:1022C000FFF796FF00230293002D25D08023019570
:1022D0009B009D4200DD01933800FFF777FF34003B
:1022E000A31B0293019BA21B934211DD637820780C
:1022F000A1781B02034309041A000B00E178134381
:102300000906B81B20181943FFF750FF0434E7E70C
:10231000ED1AFF182600D7E70921064A039813682B
:102320008B431360044B5D6000F096FC029805B08F
:10233000F0BDC04600C00050FC000050002310B5A6
:10234000934203DAC45CCC540133F9E7100010BDAA
:1023500059221621882070B5A024184DE4056B6819
:10236000012B03D06A6069606860F5E70326144AB0
:10237000144B936056619169134B0B40A021C90225
:102380000B43936100F0DEFBFF21104A0904536800
:102390000F480B4353601023A362EF332363C02223
:1023A000002366630B49A363E263333223646264F0
:1023B0000A6802430A606B6070BDC046FC000050B2
:1023C0000002005005000111FFFF00FF0040005017
:1023D000000500404040005040220021144B10B541
:1023E0001A60144B203A1960134B196007231840E8
:1023F000124B1860124801F021F88022114B92050F
:102400001A60802252001A600F4B013A5A62F43A65
:102410001A620A3A1A630D4B0D4A5A60D022D2054D
:102420001A608022920419681142FCD010BDC04687
:102430004C0D0020500D0020480D0020740D002090
:10244000540D002000E100E000000E4000000140BB
:10245000A60E00000922084B1A620022074B1A60E0
:102460008022074B9205DA6780225200DA67054B1B
:10247000FF3A1A607047C04600000E40000001405D
:1024800004E100E0500D00200022034B18681A60A0
:102490004342584140427047500D002010B5202261
:1024A000002900D19218072318400C4B8000C05817
:1024B000110001F03FF9002398420DD08022102135
:1024C000D2059C185B08844201D8001B9B18013977
:1024D00092080029F5D19BB2180010BD540D0020C0
:1024E0002B4B01219A6E5B6E12041A431F2310B509
:1024F0000C009C40224246D0013BF9D200220168E8
:10250000244B490007D5F3215962047BE43921406B
:10251000D424640106E0B7215962047BA839214024
:10252000982424012143802499630168A4050C4068
:1025300006D11C6301688C0017492140A02404E0E7
:10254000E02489B219630168090C2402214359630C
:1025500084881049DC63C4881C6404895C644489F1
:102560009C64807A012807D10324486AA04348620A
:102570004C6B0A48204048631A6280221202196A92
:102580001142FCD102E00133DAB2B8E710BDC04617
:10259000FC00184000001840FC1F0000FFDFFFFF98
:1025A0001C4B70B59C6E5B6E24041C4301251F23DD
:1025B0002E009E40344228D0013BF9D20024F02561
:1025C000154B5D62154D9D6380252D02002A08D1B3
:1025D00089009A62D9621A63114A80001040284328
:1025E0000BE08AB2090C9A62294382B2D9621A635B
:1025F000C022C000C00C1202104380225863120295
:102600001C62196A1142FCD102E00133DCB2D6E748
:1026100070BDC046FC001840000018408F14000038
:10262000FC1F0000F0B501274022474C85B023680D
:1026300002263B43236023681343236000F082FAA1
:10264000424B434D1868696801F074F83F4B0190A4
:1026500002930395B91903310198F5B201F0F0F82E
:1026600000290FD0062E01D80137FFB2B919033166
:10267000019801F0E5F8002904D00136102EE9D1C7
:1026800001270225E9192D023F032F43C025019898
:10269000033101F04FF8E36800211D403F2301386A
:1026A00003402F431F43E7608027F3250B0080057D
:1026B000000FA0613F0201316562A362E362236300
:1026C0006363A363E36323646364A3642162206A96
:1026D0001D4A3840FBD12029EDD1F123506011680B
:1026E0000B400A210B431360136837318B4313608F
:1026F00001232568144F01221D40FAD18021154B7A
:1027000049031960039B290028001A60FFF748FF5E
:102710002A0029002800FFF743FF3F22FD68FC68DC
:10272000F968BB6911409B011943029B013118688C
:1027300001F000F864042905640F090F0919033139
:1027400000F0F8FF05B0F0BD000018402C0000209C
:102750005C01002000E100E010B5024B5860FFF77B
:1027600061FF10BD5C010020002210B5044B080081
:10277000FE335A80DA809A80FFF7EEFF10BDC04624
:10278000880D0020184BF7B55D686422280001927F
:102790001C321040154C24D0A16801311E2904DCE4
:1027A000A16001200024124E0BE00023A360FFF77C
:1027B00039FF0123236002E05968114201D128004A
:1027C00010E001994F1E01970029F8D01968814344
:1027D000196000940099B142EEDC0099013100913A
:1027E000F8E7A060FEBDC046000018405C01002074
:1027F0000F270000F7B50F4A00261400FE34E388C7
:1028000001929C46B34212D0A3885D1CADB21B015D
:10281000A580D31886CB86C01B6803600F2D00D916
:10282000A68061460126019A0139FE32D18030002E
:10283000FEBDC046880D00200023064A10B5116871
:10284000994205D0984203D01360FFF749FE012357
:10285000180010BD5C0100207047FFFFF8B5224C46
:10286000E569EB0502D4AB053CD51AE00126E36926
:102870003342F8D000F0ECF91C4B9A883F2A0DD86F
:10288000198801329A804A1C92B2174F1A803F6809
:1028900059188F713F2A01D900221A8000F0DCF903
:1028A000E5E7002500F0D4F9104B46339A88AA4298
:1028B0000DD05988013A9A804A1C92B25A80591810
:1028C0008979013521603F2A01D900225A8000F020
:1028D000C3F9002D06D10222636893436360044B61
:1028E000013ADA60F8BDC0460000054068010020EA
:1028F000E801002010B5FFF7B1FFFFF7ADFF10BDF5
:102900000022F8B5214B01009A805A801A80463384
:102910009A805A801A80162059238826A0251C4A9E
:10292000ED055468012C03D0536050605660F5E704
:102930008026184B76029868304398605F69164885
:10294000384058615869586100235360EB68480863
:102950003343EB60EA68114B1340EB60104BC01837
:1029600000F0E8FEC023032211219B050238184322
:102970000C4B5862DA605A680A435A6080220A4B4C
:1029800052011A60094BDC60F8BDC04668010020A6
:10299000FC00005000020050FFFFFFFCFFFFFEFFA5
:1029A000001BB7000000054000E100E0E801002046
:1029B00070B5002500F04CF90C4B9A88AA420CD057
:1029C0005988013A9A804A1C92B25A8059188C79D7
:1029D00001353F2A01D900225A8000F03DF920003C
:1029E000002D01D10120404270BDC0466801002089
:1029F0000221084B5A688A4380215A6009041860F2
:102A00009869044A0842FBD1022153680B43536082
:102A10007047C04600000540F7B50024174D06007A
:102A2000EB680191A34203D00278154B1A60013480
:102A3000019B9C4219DA00F00BF9124B0027463338
:102A40009A883F2A0DD819880132375D9A804A1C2E
:102A500092B259188F711A8001273F2A01D900229A
:102A60001A8000F0F9F8002FE1D100230221044A76
:102A7000EB605368E0B20B435360FEBDE8010020F9
:102A8000000005406801002010B559211620882457
:102A9000044B5A68012A03D0596058605C60F8E71B
:102AA00010BDC046FC00005010B5FFF7EDFF082236
:102AB0000F4B1968114319601100D8680C4A08427D
:102AC000FBD0012193680B439360536902310B43A0
:102AD0005361084B084A3D311A601A680A431A606C
:102AE0000222064B1A600022054B5A6010BDC046F8
:102AF0000002005000400040C205000000E100E07C
:102B0000FC00005010B5FFF7BFFF2D21044A1368E9
:102B10008B432C390B4313600022024B5A6010BDCB
:102B200000400040FC00005010B500F055F810BD0A
:102B3000024A034BDA60BFF34F8FFEE70400FA0549
:102B400000ED00E037B501AD04221C49280000F07B
:102B5000A9FDA0221A4CD202236A0020134215D1EB
:102B60001A0301D4174800E017489A030ED4DA0577
:102B7000D20D0232800850431A04920F9B04A95CC4
:102B8000DB0E0233594300F0D5FD800007230F4DC3
:102B9000286022691340022B02D09B00EB18586872
:102BA0000F23A1691940013100F0C4FD084B686290
:102BB0000849C01800F0BEFDA86237BDC33E000042
:102BC00000020050001BB7000080510108000020E7
:102BD00020A1070040420F0010B55921162088247B
:102BE000164B5A68012A03D0596058605C60F8E7B8
:102BF000134B14321A60053AD9681142FCD00122F5
:102C0000D9681142FCD00F490D4A11620421D868DD
:102C10000B4A0842FBD0072113698B4313611369E8
:102C200005390B431361084B084A1A605A62302277
:102C30009A620022014B5A6010BDC046FC00005051
:102C4000000200506ECA000008000020006CDC0288
:102C5000EFF3108072B6704780F3108870470B480E
:102C60000B490170002080F309880A480121017096
:102C700009480A49016062B6FEE707480749016052
:102C800070470548054901607047000022ED00E0EB
:102C9000FF000000E00A002004ED00E0000000104A
:102CA000F0B585B01C1C0AAB039204CB01901D78D3
:102CB0000291FFF7CDFF1C236B431E4A0090D318EF
:102CC000DB7B6426DB072FD40A9BA34202D20022BF
:102CD00004C3FAE71C210F1C6F43164BFE18301C6F
:102CE000FDF7ECFD221C0399029800F043F8114B0C
:102CF000F8500A9B73600A9AB573A41A0122A408BB
:102D00000134F273348100260A4B0199D819063236
:102D1000143000F0D4FB281CFDF7C0FD064B1B78D7
:102D2000B34201D000F096F80098FFF795FF301CF1
:102D300005B0F0BD7C0B0020E00A002070B5041E39
:102D40000ED0FFF785FF061C064D2B68987BFDF71C
:102D5000ADFD2B68301C5C81FFF77EFF00F07AF838
:102D600070BDC046700B002008B5C820FFF7E6FF15
:102D7000FBE7FFFF80235B041360131F18600F48FD
:102D8000043B18601220043B1860043B0F381860A5
:102D9000043B01381860043B01381860043B19609B
:102DA0000721043B1960043B01391960043B0139D8
:102DB000196004232C3A101C13607047692D000021
:102DC00080230C490C4ADB0510B50B60146A0B4BD1
:102DD0002340C02424042343136280231B060B607A
:102DE000136A1B021B0A13620722054B58601A6004
:102DF00010BDC04600E100E000ED00E0FFFF00FF75
:102E000010E000E010B5FFF723FF0E4B041C1B7809
:102E1000012B12D10C4B1A78002A01D0013A1A70FA
:102E20001B78002B09D1FDF775FD084B1A68084B7C
:102E30001B689A4201D0FFF724FF201CFFF70CFF0C
:102E400010BDC046E00A0020780C0020700B002066
:102E5000DC0A002010B5FFF7FBFE094B041C1B78B1
:102E6000002B09D1FDF756FD064B1A68064B1B686F
:102E70009A4201D0FFF705FF201CFFF7EDFE10BDC1
:102E8000780C0020700B0020DC0A002030B5051CF7
:102E9000062089B001ACE0800195002901DA80218B
:102EA0000906481EA060111C201C1A1C00F0C4F862
:102EB000A268002A05DBE368934200DD131C0022B0
:102EC000EA5409B030BDFFFF38B5CB88051C0C1C97
:102ED0009A0702D4012040421BE05B070CD5CB6867
:102EE0008A68934203DA0B685A1C0A601870E36818
:102EF000281C0133E3600CE00B69002BEAD09847F3
:102F00000028E7D1E388281C9B0402D4E36801333E
:102F1000E36038BD10B5CB88041C0078DB0406D50F
:102F2000A02804D963780002C01880B20134FFF7EA
:102F3000CBFF201C10BDF7B5051C01930C1C2026EF
:102F4000031C00290EDD1978581B002901D001331C
:102F5000F9E7A04201DA241A00E00C1C20269307AE
:102F600000D51036271CD3070AD4002F05DD301CEE
:102F70000199FFF7A9FF013FF7E7E343DB179C4304
:102F80002B78002B05D0281C0199FFF7C3FF451CA7
:102F9000F6E7002C05DD301C0199FFF795FF013C99
:102FA000F7E7F7BDF0B587B01E1C0F1C051C03AB7F
:102FB000002804D1302258701A70181C35E0002106
:102FC00001918A4206D00A2F04D1884202DA0122F6
:102FD0004542019200220F24DA7202ABE418002D60
:102FE00011D0281C391C00F02BFC092902DD0D9B97
:102FF0003A3BC9183031013C2170281C391C00F0C3
:1030000099FB051CEBE7019B002B0DD0002E08D08F
:103010000C9B9B0705D52D200E99FFF755FF013E10
:1030200002E02D23013C2370201C311C0C9A0E9BC6
:10303000FFF781FF07B0F0BDF0B5041C89B0151C87
:10304000002802D101204042E4E08023C2889B0195
:10305000134000D1C3609307F4D50B78002B00D147
:10306000D7E0252B00D0CBE04B784F1C002B00D1B4
:10307000CFE0252B00D1C2E000262D2B01D18F1CE3
:1030800001363B78302B03D1022301371E43F8E78A
:103090000422191C91432A2904D17B1C0493002388
:1030A000181C0AE0303B092BF7D9002317E02E2A21
:1030B0000BD10120049A01320492049A571E3A78E7
:1030C0002A2AF4D12B680435F4E7303AD1B2092921
:1030D00005D80028EED10A277B439B18EAE73A7807
:1030E0006C3A51424A41BF183A78642A3ED009D816
:1030F000622A4BD06DD8582A78D12A1D04920096A6
:1031000041223DE0732A20D016D8702A6ED1211CAE
:103110003020FFF7D9FE211C7820FFF7D5FE2B1DAC
:10312000049302231E433F330193009602942868C0
:1031300010210022393B49E0752A0ED0782A55D15A
:103140002A1D0492009661221AE02A1D04922A6820
:103150003148002A44D0101C42E02A1D049261220A
:1031600000960192029428680A210DE02A1D04921B
:10317000612200960192029428680A21603A25E0B3
:10318000102101920294286800221FE02B1D049355
:103190002B6880250593202600232D02059A3120D7
:1031A0002A4202D1002B04D03020211CFFF78CFED4
:1031B0000123013E6D10002E01D0002DEED1002B19
:1031C00024D1211C3020FFF77FFE1FE0FFF7EAFE2D
:1031D0001CE02A1D04922A6807A80270002242708F
:1031E000191C321C231CFFF7A6FE0FE0211C252012
:1031F000FFF76AFE3878211CFFF766FE05E0391CF0
:10320000081C211CFFF786FE071C0495791C049DF1
:1032100023E7E06809B0F0BDC73E000038B5084DAF
:10322000041C2B68181E09D00A2C02D10D20002185
:1032300098472B68201C00219847012038BDC046C4
:10324000F801002010B50B4B02245A89002801D048
:10325000224300E0A2435A8101245A89002901D067
:10326000224300E0A2435A81034A18605A619961DF
:1032700010BDC046F80100201D3200000FB407B594
:10328000054804AA02CA04300192FFF7D5FE03B034
:1032900008BC04B01847C046F801002008B5031C5C
:1032A0000A1C0248191CFFF7E9FFFEE7CE3E0000AA
:1032B000002108B50A1C00F001F808BDF7B50F1C85
:1032C000161C002900D00860002E04D0B21E002376
:1032D000222A00D98FE0031E00D18CE00578441C1F
:1032E000202D01D1201CF9E72D2D04D10123841CB0
:1032F0004578019305E0002301932B2D01D14578FA
:10330000841C002E13D0102E03D166E03025002E31
:1033100012D0082E10D002DC022E17D010E00A2E98
:1033200007D0102E0CD180201026000510E0302D83
:1033300055D00A2631480BE080200826400507E0DA
:103340008020311C000600F0F5F901E08020C00566
:1033500000210B1C2A1C303AD2B2092A0BD92A1C94
:10336000413A192A01D8373D04E02A1C613A192A4A
:1033700013D8573DEAB2B2420FDA4DB2002D09DB45
:10338000FF21834206D87343D3188022120693424A
:1033900000D8FE3925780134DCE7002F0AD0002957
:1033A00002D0013C3C6005E0019A92070CD5023C3A
:1033B0003C6009E04AB2002A06DA0123019A1A4069
:1033C000131C0F4A9B1816E0019AD20701D55B42E5
:1033D00011E0002B0FDA0A4B0DE0302DA3D1202293
:1033E00023789343582B91D1019A563B1A43657821
:1033F0000192023497E7181CFEBDC046CCCCCC0C21
:10340000FFFFFF7F70B58A18914214D00B7804013A
:103410001E09000B084D70404000405BA4B24440C0
:103420002001260B0F24234073405B005B5B80B2BE
:1034300058400131E8E770BDEC3E0000F0B5061CD5
:10344000B30705D0002A2DD03170013A0136F7E7D5
:10345000331C032A20D9341CCBB21D021D432B047C
:103460001D43131BF3180F2B05D925606560A5605C
:10347000E5601034F5E70F2413091B01F31814401D
:103480001F1C261C032E02D920C7043EFAE7032581
:10349000A408A4002A401B199A18934202D019705C
:1034A0000133FAE7F0BD0378002B05D00A789A4281
:1034B00002D101300131F6E70878181A7047031C71
:1034C00030B5002A07D00C7801335D1E013A2C700C
:1034D0000131002CF5D19A18934203D000211970C4
:1034E0000133F9E730BDFFFFF7B50B68071C0E1C71
:1034F00010480C21009300F01DF900240E4D01909E
:10350000019B9C4211D20D4B9D420ED00098296820
:10351000FFF7C9FF002804D16B68381C311C98479D
:1035200007E001340C35E4B2EAE70548FFF7A6FEF0
:103530000020FEBD6C0000004C3F0000B83F0000C2
:103540001A3F000070B5051C0C1C022814D14868F5
:103550001949FFF7A8FF002805D11848FFF78EFE8C
:103560000120404227E023686268281C22606360D3
:10357000211CFFF7B9FF1EE01148FFF77FFE11483D
:103580000C2100F0D7F80024061CB4420FD20C2501
:1035900065430D4BED180D4B9D4208D00C48FFF7CD
:1035A0006DFE0134A868FFF769FEE4B2EDE7094853
:1035B000FFF764FE002070BD263F00002B3F000097
:1035C0003D3F00006C0000004C3F0000B83F000091
:1035D000493F0000743B000038B5194D0021041C20
:1035E0004022281CFFF72AFF291C2378202B01D119
:1035F0000134FAE701200C602378002B1AD00F2841
:1036000018D8202B01D0092B12D100222270092BAF
:1036100010D001342378202B02D100232370F8E747
:103620008300CC502378002B02D00130C0B2E3E7F6
:103630000134E1E700228300CA50FFF755FF38BD8F
:1036400018020020F0B5CB0F87B003905B185B1019
:10365000002B25DD1C1C5A00029252420492039D4D
:103660009A0005928C42F2DA2E1C029AAA5A019212
:10367000E21A002A0BDB3088844604983618019839
:10368000604504DA67460598D21A3752F1E76E466C
:10369000D2180398B6885200165201340235E1E779
:1036A00007B0F0BD70B50F2A32D90C0004430B00EF
:1036B000A40731D115000400103D2D0901352D015D
:1036C00049191E6826605E6866609E68A660DE68AE
:1036D0001033E66010349942F3D10F23451913409B
:1036E000032B1BD91C1F0023A4080134A400CE58AF
:1036F000EE5004339C42FAD103232D1909191A40C4
:1037000005D00023CC5CEC5401339A42FAD170BD51
:103710000500002AF5D1FAE70500F2E71A00F8E7FC
:1037200002B4714649084900095C49008E4402BC54
:103730007047C046002243088B4274D303098B4272
:103740005FD3030A8B4244D3030B8B4228D3030C71
:103750008B420DD3FF22090212BA030C8B4202D313
:103760001212090265D0030B8B4219D300E0090A3B
:10377000C30B8B4201D3CB03C01A5241830B8B4244
:1037800001D38B03C01A5241430B8B4201D34B032D
:10379000C01A5241030B8B4201D30B03C01A524192
:1037A000C30A8B4201D3CB02C01A5241830A8B4217
:1037B00001D38B02C01A5241430A8B4201D34B0200
:1037C000C01A5241030A8B4201D30B02C01A524164
:1037D000CDD2C3098B4201D3CB01C01A5241830918
:1037E0008B4201D38B01C01A524143098B4201D352
:1037F0004B01C01A524103098B4201D30B01C01A7D
:103800005241C3088B4201D3CB00C01A52418308F6
:103810008B4201D38B00C01A524143088B4201D323
:103820004B00C01A5241411A00D201465241104683
:103830007047FFE701B5002000F0F0F802BDC04678
:103840000029F7D076E7704703460B437FD4002268
:1038500043088B4274D303098B425FD3030A8B4224
:1038600044D3030B8B4228D3030C8B420DD3FF228E
:10387000090212BA030C8B4202D31212090265D05C
:10388000030B8B4219D300E0090AC30B8B4201D30F
:10389000CB03C01A5241830B8B4201D38B03C01A56
:1038A0005241430B8B4201D34B03C01A5241030BCD
:1038B0008B4201D30B03C01A5241C30A8B4201D37E
:1038C000CB02C01A5241830A8B4201D38B02C01A29
:1038D0005241430A8B4201D34B02C01A5241030AA0
:1038E0008B4201D30B02C01A5241CDD2C3098B4285
:1038F00001D3CB01C01A524183098B4201D38B0102
:10390000C01A524143098B4201D34B01C01A5241A4
:1039100003098B4201D30B01C01A5241C3088B42E9
:1039200001D3CB00C01A524183088B4201D38B00D4
:10393000C01A524143088B4201D34B00C01A524176
:10394000411A00D201465241104670475DE0CA0F4D
:1039500000D04942031000D34042534000229C460D
:1039600003098B422DD3030A8B4212D3FC22890117
:1039700012BA030A8B420CD3890192118B4208D3ED
:10398000890192118B4204D389013AD0921100E04F
:103990008909C3098B4201D3CB01C01A5241830963
:1039A0008B4201D38B01C01A524143098B4201D390
:1039B0004B01C01A524103098B4201D30B01C01ABB
:1039C0005241C3088B4201D3CB00C01A5241830835
:1039D0008B4201D38B00C01A5241D9D243088B428B
:1039E00001D34B00C01A5241411A00D2014663462E
:1039F00052415B10104601D34042002B00D5494292
:103A0000704763465B1000D3404201B5002000F0D0
:103A100005F802BD0029F8D016E770477047C04688
:103A200072657365740072657365740063616E20FE
:103A3000253038782C202530387820253038780A01
:103A4000004469730043616E002E2F6170702F6D0A
:103A500061696E2E630044617461434A000A2573F4
:103A60000A5A58564920342E320A636D643E006F5C
:103A700073006F73006465627567205B656E7C64BC
:103A800069737C7365745D206E756D620064656238
:103A9000756700656E006469730073657400646522
:103AA000627567205B656E7C6469737C7365745DA9
:103AB000206E756D203078253038780A0020204D32
:103AC0006963726F4F5320203A205625642E2530AB
:103AD00032640A0020205469636B526174652020AF
:103AE0003A2025640A002020435055205370656514
:103AF00064203A202564204D487A0A00202023546F
:103B000069636B73202020203A2025640A0020205E
:103B1000234374785377202020203A2025640A001C
:103B2000C3FBB3C6094944BAC509B6D1D5BBD7DC76
:103B3000CAFD09B6D1D5BBCAB9D3C309D4CBD0D03D
:103B4000B4CECAFD0A00252D357309252D3464092C
:103B500000252D356409253564252509252D356475
:103B60000A00435055205573616765203A2025307F
:103B7000326425250A005231323D20307825303814
:103B8000780A004C52203D203078253038780A00E1
:103B90005043203D203078253038780A0050535269
:103BA0003D203078253038780A00080001000200F6
:103BB00001000300010002000100080405040604DE
:103BC000050407040504060405044F5349646C65A5
:103BD000002E2E2F6D796C69625F742F4F535F6CCE
:103BE00069622E630000000001000000923C0000AA
:103BF000020000009A3C000003000000A23C00000C
:103C000004000000A93C000005000000B13C0000D9
:103C100006000000B93C000007000000BE3C0000A8
:103C200008000000C53C000009000000CC3C00007A
:103C30000B000000D33C00000C000000DC3C000046
:103C40000D000000E33C00000E000000EB3C000013
:103C50000F000000F23C000011000000F73C0000E3
:103C60006461746100646174610054206E0976615E
:103C70006C756509646174610973746174650A0027
:103C80005756002025642E092564092564092564FA
:103C90000A005A5856412D5332005A5856412D4465
:103CA00032005A5856492D53005A5856412D533117
:103CB000005A5856412D4436005A585644005A5816
:103CC00056492D44005A5856492D57005A585641C6
:103CD0002D57005A5856412D533246005A585641D6
:103CE0002D44005A5856412D5732005A5856442DEB
:103CF00049005A584C57005A5856492D5332000023
:103D0000F6FFF3049B045C0400009E045F043A0485
:103D10000A0057041E04110414000004E803E80319
:103D20001E00AF03A303AA03280055034F036B0330
:103D3000C1018808B0010C089F0190078D01200780
:103D40007C01A4066B0130065901C80548015405E1
:103D50003701EC042601840414011404F200480322
:103D6000AD00E0010401A106FA004006F000E10503
:103D7000E6008605DC003105D200D104C8007204DB
:103D8000BE001D04B400C103AA007003A0001A0302
:103D90008C007D02640063016A7A562056006A7ABC
:103DA00056006A7A006A7A0090011D03F0008B01C8
:103DB00064005200F6FFEE050000B3050A007E0520
:103DC00014004C051E0028052800DC043200A7045E
:103DD0003C00720446003D04500008045A00D3031E
:103DE00064009E03676574006765740063616E20FC
:103DF00025782D25782D25780A0053657441646453
:103E000072657373200053657441646472657373E3
:103E10003A2564006164647200000000A51D000082
:103E2000636E740000000000BD1E000074797065B0
:103E300000000000311F000064656C617900000023
:103E4000D51D000064656C6179490000F11D00001A
:103E500065644900000000000D1E0000626A490010
:103E600000000000391E0000626A560000000000D9
:103E70006D1E00007179560000000000951E0000C4
:103E80004244000000000000D91E000057444A5A76
:103E900000000000051F00007573657200757365F2
:103EA000720025732025640A006765740025730974
:103EB00025640A0064656600776474207265736522
:103EC000740A0001020204286E756C6C29004173AB
:103ED00073657274696F6E206661696C65643A20FF
:103EE00025732C206C696E6520257500000021105B
:103EF000422063308440A550C660E7700881299154
:103F00004AA16BB18CC1ADD1CEE1EFF168656C70A7
:103F100020636D640068656C70006E6F20636F6D68
:103F20006D616E640A0068656C700041726520798D
:103F30006F75206B696464696E673F0A0070636D1A
:0C3F4000642055736167653A000A0900AF
:103F4C00263A000055040000203A0000723A0000A6
:103F5C00B90700006F3A00008D3A000031070000ED
:103F6C00753A0000653C0000810A0000603C0000CE
:103F7C009E3D0000F1150000983D0000A53D00009D
:103F8C0031120000A23D0000E83D0000491600007F
:103F9C00E43D00009D3E0000B1200000983E000072
:0C3FAC00153F0000453500000C3F0000F0
:103FB80003000000140D002080F0FA02001BB70077
:103FC8000000000080F0FA02102700000000000046
:103FD80000000000000000000080510180F0FA029B
:043FE80032000000A3
:00000001FF
